:100000000AC011C010C00FC00EC00DC00CC00BC084
:100010000AC009C008C011271FBFCFE5D0E0DEBF6E
:10002000CDBF15D041C0ECCF8117910779F040E1E9
:1000300050E04150510B4117510729F0029A60EBF3
:100040006A95F1F7F6CF8150910BEECF089548ED08
:100050004CBF16BF45E041B941E042B942B14095BD
:1000600043B980E991E0E0DF40E157E260E0C0B1F0
:10007000C270C61303C04150510B02C040E157E2A9
:1000800067EC70E061507040E9F700C00000411774
:10009000510711F06C2FEBCF109880E991E0C4DF8D
:0C00A000109A40E157E2F6CFF894FFCF31
:00000001FF
